:0400000007EF00F016
:0A000800558292ED05F076EF0AF044
:100300000053763A202020202020202000526164D3
:10031000696F20464D00636E743A200043504D3A99
:1003200000001B50800B246E1B501B242A6E1AAE3B
:100330009CEF01F09EEF01F09FEF01F02A802A5020
:10034000D8B4A5EF01F0A7EF01F0BAEF01F02A2829
:10035000D8A4ADEF01F0AFEF01F0B7EF01F0000E60
:10036000186E000E196E000E1A6E000E1B6E1A8E9D
:10037000C2EF01F0000E186E000E196E000E1A6E1C
:10038000000E1B6E1F50800B241A1F501F24256E59
:100390001EAECDEF01F0CFEF01F0D0EF01F02580E0
:1003A0002550D8B4D6EF01F0D8EF01F0EBEF01F013
:1003B0002528D8A4DEEF01F0E0EF01F0E8EF01F02E
:1003C000000E1C6E000E1D6E000E1E6E000E1F6EC7
:1003D0001E8EF3EF01F0000E1C6E000E1D6E000E5F
:1003E0001E6E000E1F6E2550D8B4F9EF01F0FBEF22
:1003F00001F003EF02F02A50D8A401EF02F003EF5E
:1004000002F00DEF02F0000E186E000E196E000ED5
:100410001A6E000E1B6EA5EF03F01E501802F3CFEC
:100420002FF0F4CF30F02F50266E276A286A296A01
:1004300030502B6E2C6A2D6A2E6A1D501902F3CF94
:100440002FF0F4CF30F02F502626000E272228223E
:10045000292230502B26000E2C222D222E221C5019
:100460001A02F3CF2FF0F4CF30F02F502626000ED3
:1004700027222822292230502B26000E2C222D2222
:100480002E2228C029F027C028F026C027F0266A8F
:100490001C501902F3CF2FF0F4CF30F02F50262646
:1004A00030502722000E2822000E29221D5018024B
:1004B000F3CF2FF0F4CF30F02F50262630502722E4
:1004C000000E2822000E292228C029F027C028F07B
:1004D00026C027F0266A1C501802F3CF2FF0F4CF65
:1004E00030F02F50262630502722000E2822000EF2
:1004F00029221E501902F3CF2FF0F4CF30F02F50E5
:100500002B2630502C22000E2D22000E2E221D50A4
:100510001A02F3CF2FF0F4CF30F02F502B263050AB
:100520002C22000E2D22000E2E221E501A02F3CF76
:100530002FF0F4CF30F02F50206E3050216E226A11
:10054000236A22C023F021C022F020C021F0206ABB
:1005500020502B2621502C2222502D2223502E2297
:1005600026C020F027C021F028C022F029C023F0A7
:10057000190EC0EF02F0D8902332223221322032FD
:10058000E82EBBEF02F020502B2621502C222250C7
:100590002D2223502E2228C029F027C028F026C063
:1005A00027F0266A25502AC020F0216A2026000E56
:1005B0002122820E20242F6EFF0E2120306EF6EFB6
:1005C00002F0D8902B362C362D362E3629AEEBEF96
:1005D00002F0EDEF02F0EEEF02F02B80D89026361D
:1005E0002736283629362F06D8A030062DAEFBEF49
:1005F00002F0FDEF02F0E1EF02F0000E256E29AEF1
:1006000004EF03F006EF03F02AEF03F0FF0E2614C9
:10061000206EFF0E2714216EFF0E2814226E7F0E0F
:100620002914236E2050211022102310D8B41BEF60
:1006300003F01DEF03F021EF03F0010E256E2AEF0A
:1006400003F02BA026EF03F028EF03F02AEF03F0CE
:100650001DEF03F02550D8B430EF03F032EF03F074
:1006600056EF03F0010E2B26000E2C222D222E22F7
:100670002EA03DEF03F03FEF03F056EF03F02BC049
:1006800020F02CC021F02DC022F02EC023F0233406
:10069000233222322132203220C02BF021C02CF014
:1006A00022C02DF023C02EF02F4A302A30BE61EF39
:1006B00003F0305008E12F28D8A061EF03F063EF7A
:1006C00003F06DEF03F0000E2B6E000E2C6E800E0B
:1006D0002D6E7F0E2E6E9BEF03F030BE7AEF03F08F
:1006E000305006E12F04D8B078EF03F07AEF03F032
:1006F00086EF03F0000E2B6E000E2C6E000E2D6E9A
:10070000000E2E6E000E246E9BEF03F02FC02AF019
:10071000FF0E2B16FF0E2C167F0E2D16000E2E161A
:100720002AA095EF03F097EF03F098EF03F02D8EDA
:10073000D8902A302E6E24502E122BC018F02CC0C8
:1007400019F02DC01AF02EC01BF01200000E00018F
:10075000DF6F000EDE6F700ED36EA00E176E860E6A
:10076000186E010E196E000E1A6E17EC0AF00B0EC1
:100770000001DB6F260EDA6F5D0EE82EFED7DA2F52
:10078000FCD7DB2FFAD700D0C20E116E8D0E106E83
:10079000020E9EEC0BF0020E0001DB6F040EDA6F0E
:1007A000BA0EE82EFED7DA2FFCD7DB2FFAD700F0EF
:1007B000000E0B6E0F0E0A6EB2EC0BF0456E45C0CC
:1007C00044F0660E4524396E3A6A030E3A22800ED2
:1007D0000001DA6F260EDB6F39C0DCF03AC0DDF0C5
:1007E000060ED890DC37DD37E82EF1EF03F0DA5152
:1007F000DC27DB51DD23100EDC11106EDD51116E94
:10080000030E9EEC0BF0020E0001DB6F040EDA6F9C
:10081000BA0EE82EFED7DA2FFCD7DB2FFAD700F07E
:10082000080E116E000E106E040E9EEC0BF0020E00
:100830000001DB6F040EDA6FBA0EE82EFED7DA2F56
:10084000FCD7DB2FFAD700F0820E116EF20E106E7D
:10085000050E9EEC0BF092EC0BF0000E156E7E0E6A
:10086000146EEFEC07F0000E156E010E146E000E04
:10087000176E010E166ED2EC09F00D0E186E030EF7
:10088000196E47EC0AF0080E0001DB6F9E0EDA6F5E
:100890004B0E0400E82EFDD7DA2FFBD7DB2FF9D75C
:1008A000040000F00400000E116E400E106EA1EC6A
:1008B0000AF0000EDEEC0AF0110EDEEC0AF0110E6A
:1008C000DEEC0AF0110EDEEC0AF0130EDEEC0AF09C
:1008D0001D0EDEEC0AF0100EDEEC0AF0100EDEEC5F
:1008E0000AF0AB8EAC8AAC84330EAF6E948E949CBF
:1008F0009288840ED56E000ECE6E000ECF6E0F0E57
:10090000C1129388938AF286F180F28AF28E000EE9
:10091000156E010E146E000E176E010E166ED2ECDF
:1009200009F0000EDEEC0AF0010E186E030E196ECF
:1009300047EC0AF0000E156E010E146E000E176ED5
:10094000020E166ED2EC09F01C0E186E030E196E14
:1009500047EC0AF08186550EAD6E0A0E0001DA6F83
:10096000BE0E0400E82EFDD7DA2FFBD70400B9EC49
:100970000BF0CFCFE0F00001E16BE051E16FE06BF5
:10098000CE50E025E06F000EE121E16FDE51E0196D
:1009900009E1DF51E119D8B4D0EF04F0D2EF04F04F
:1009A000E1EF04F0E0C0DEF0E1C0DFF0DE51DF1186
:1009B000D8B4DDEF04F0DFEF04F0E1EF04F0BCECBD
:1009C0000BF04604D8A4E7EF04F0E9EF04F0ABEF36
:1009D00004F05B0E1C6E940E1D6ED90E1E6E3B0E47
:1009E0001F6E3FC00AF040C00BF00C6A0D6A000E8B
:1009F00091EC06F00AC018F00BC019F00CC01AF008
:100A00000DC01BF091EC01F018C031F019C032F0AC
:100A10001AC033F01BC034F06BEC07F031C0C6F0E5
:100A200032C0C7F0310E1C6E990E1D6E2A0E1E6E5E
:100A30003F0E1F6E3FC00AF040C00BF00C6A0D6AFB
:100A4000000E91EC06F00AC018F00BC019F00CC0B3
:100A50001AF00DC01BF091EC01F018C031F019C074
:100A600032F01AC033F01BC034F06BEC07F031C029
:100A70003DF032C03EF0C6C00AF0C7C00BF0FF0E1A
:100A80000D6E9C0E0C6E3EEC0BF03D500A243D6E3C
:100A90003E500B203E6E39509A0F456E800E00017D
:100AA000DA6F260EDB6F39C0DCF03AC0DDF0060EDF
:100AB000D890DC37DD37E82E58EF05F0DA51DC2727
:100AC000DB51DD23100EDC11106EDD51116E030EB3
:100AD0009EEC0BF0000E156E010E146E000E176EDC
:100AE000020E166ED2EC09F0160E186E030E196E79
:100AF00047EC0AF039C012F03AC013F0CCEC08F021
:100B000012C018F013C019F047EC0AF0090E186E65
:100B1000030E196E47EC0AF0000E466EABEF04F0C0
:100B200007EF00F00600D9CF06F0DACF07F0F2A009
:100B30009CEF05F09EEF05F0E8EF05F081CF3BF06C
:100B40003C6A81CF05F0053A0F0E051605503B6E45
:100B50003C6A030E3B16000E3C163B5051EC0BF06A
:100B6000056E05503B6E3C6A020E3B183C10D8A443
:100B7000BCEF05F0BEEF05F0DBEF05F0545007E1E8
:100B8000020E535CD8B0C7EF05F0C9EF05F0CBEF0C
:100B900005F0394A3A2A545009E1030E535CD8A0B3
:100BA000D4EF05F0D6EF05F0D9EF05F03906D8A05F
:100BB0003A06010E466E3BC053F03CC054F0060EA0
:100BC000056E300EE82EFED7052EFCD700D0F29031
:100BD000F2A4EDEF05F0EFEF05F08BEF06F0DB0E82
:100BE000D66E0B0ED76EF2940001C35109E13C0E94
:100BF000C25DD8A0FEEF05F000EF06F004EF06F0AE
:100C0000000EC36F000EC26F600EC225D96E000EBB
:100C1000C321DA6ECECFDFFFC24BC32B000E406E76
:100C2000000E3F6E000E096E000E086E600E082466
:100C3000D96E000E0920DA6EDF50056E05503F2494
:100C40003F6E000E4020406E084A092A09BE32EF6E
:100C500006F0095009E13C0E085CD8A032EF06F01E
:100C600034EF06F016EF06F0000ECE6E0001CA2B30
:100C7000C5EC0BF01A0E056EF80EE82EFED7052E09
:100C8000FCD700D0C8EC0BF045504318D8A44BEF6C
:100C900006F04DEF06F087EF06F0422A4450451863
:100CA000D8B455EF06F057EF06F08BEF06F0030EC1
:100CB00042645DEF06F05FEF06F08BEF06F0412A2D
:100CC000040E416466EF06F068EF06F08BEF06F065
:100CD000000E026E0F0E016E45C003F028EC0BF003
:100CE000CBEC0BF0C2EC0BF0820E056EDE0EE82EA4
:100CF000FED7052EFCD7BFEC0BF0CEEC0BF0000EB0
:100D0000416E000E426E45C044F08BEF06F045C0C8
:100D100043F08BEF06F007C0DAFF06C0D9FF55920B
:100D20001100126E1250D8B498EF06F09AEF06F048
:100D3000BCEF06F00DBEA1EF06F09FEF06F0BCEF92
:100D400006F00AC00EF00BC00FF00CC010F00DC082
:100D500011F00E1E0F1E101E111E0E2A000E0F2265
:100D6000102211220EC014F00FC015F010C016F0A2
:100D700011C017F0C4EF06F00AC014F00BC015F054
:100D80000CC016F00DC017F00A500B100C100D100F
:100D9000D8A4CDEF06F0CFEF06F0D9EF06F0000EA5
:100DA0000A6E000E0B6E000E0C6E000E0D6E6AEFDA
:100DB00007F0960E136EE3EF06F0132AD890173261
:100DC000163215321432000E14140E6E000E151465
:100DD0000F6E000E1614106EFE0E1714116E0E50CC
:100DE0000F1010101110D8A4F8EF06F0FAEF06F06B
:100DF000DDEF06F008EF07F0132A010E1426000EAF
:100E0000152216221722D8901732163215321432B4
:100E1000000E14140E6E000E15140F6E000E161434
:100E2000106EFF0E1714116E0E500F1010101110CF
:100E3000D8A41DEF07F01FEF07F0FCEF06F027EF37
:100E400007F01306D890143615361636173616BE28
:100E50002CEF07F02EEF07F036EF07F0020E1360CD
:100E600034EF07F036EF07F021EF07F013B03BEF58
:100E700007F03DEF07F03EEF07F0169ED8901332D3
:100E800013C00EF00F6A106A116A0EC011F0106ADA
:100E90000F6A0E6A0E5014120F50151210501612CF
:100EA000115017121250D8B458EF07F05AEF07F04C
:100EB00062EF07F00DBE61EF07F05FEF07F062EF42
:100EC00007F0178E14C00AF015C00BF016C00CF016
:100ED00017C00DF01200333434340001D96FD951EA
:100EE000D8A475EF07F077EF07F081EF07F0000E59
:100EF000316E000E326E000E336E000E346EEEEF69
:100F000007F031C035F032C036F033C037F034C0AE
:100F100038F0200E91EF07F0D89038323732363261
:100F20003532E82E8CEF07F03550D86F338EFF0E38
:100F30003116FF0E3216FF0E3316000E3416960EC3
:100F4000D95FD9BFA8EF07F0A6EF07F0BEEF07F013
:100F5000D951800A970FD8B0B0EF07F0B2EF07F081
:100F6000B4EF07F077EF07F0D890343233323232F3
:100F70003132D93FB4EF07F0D6EF07F01F0ED96535
:100F8000C4EF07F0C6EF07F0CEEF07F077EF07F0FA
:100F9000D8903136323633363436D907D951D8A4C1
:100FA000D4EF07F0D6EF07F0C8EF07F0D851D8B468
:100FB000DCEF07F0DEEF07F0E6EF07F0341E331E3C
:100FC000321E316C000E32223322342231C031F015
:100FD00032C032F033C033F034C034F0120014C0E9
:100FE000C8F015C0C9F0000E0D6E000E0C6EA9EC15
:100FF0000BF0680E166EE40EE82EFED7162EFCD708
:1010000000D0000E116E030E106EA1EC0AF00D0E52
:10101000166EFC0EE82EFED7162EFCD7000E116EB3
:10102000030E106EA1EC0AF00D0E166EFC0EE82EEB
:10103000FED7162EFCD7000E116E030E106EA1EC1B
:101040000AF00D0E166EFC0EE82EFED7162EFCD7FB
:10105000000E116E020E106EA1EC0AF00D0E166E4F
:10106000FC0EE82EFED7162EFCD7000E116E280EB1
:10107000106EA1EC0AF0820E166EDE0EE82EFED780
:10108000162EFCD7000E116E0C0E106EA1EC0AF09D
:10109000820E166EDE0EE82EFED7162EFCD7000E40
:1010A000116E010E106EA1EC0AF0820E166EDE0EAD
:1010B000E82EFED7162EFCD7000E116E060E106E0F
:1010C000A1EC0AF0820E166EDE0EE82EFED7162E6A
:1010D000FCD71200000E0F6E0DBE73EF08F071EF1B
:1010E00008F079EF08F00C6C0D1ED8B00D2A010E37
:1010F0000F6E0BBE80EF08F07EEF08F086EF08F071
:101100000A6C0B1ED8B00B2A010E0F1A000E116EBE
:10111000000E106E0C500D10D8B491EF08F093EF44
:1011200008F0BBEF08F0010E0E6E9BEF08F0D890B0
:101130000C360D360E2A0DAEA0EF08F0A2EF08F027
:1011400097EF08F0D890103611360C500A5C0D500D
:101150000B58D8A0AEEF08F0B0EF08F0B5EF08F0EC
:101160000C500A5E0D500B5A1080D8900D320C3284
:101170000E2EA2EF08F00F50D8B4C1EF08F0C3EF65
:1011800008F0C7EF08F0106C111ED8B0112A10C07B
:101190000AF011C00BF0120012C014F013C015F0C9
:1011A000000E176E0B0E166E000E0001D76F13BEE9
:1011B000DEEF08F0DCEF08F0E2EF08F0126C131E2F
:1011C000D8B0132A1606D8A01706CC0E1624D96E4E
:1011D000000E1720DA6E12C00AF013C00BF0000EDA
:1011E0000D6E0A0E0C6E28EC09F00A50300FDF6EFF
:1011F00012C00AF013C00BF0000E0D6E0A0E0C6E3A
:101200006AEC08F00AC012F00BC013F01250131071
:10121000D8A40DEF09F00FEF09F0E2EF08F015BECA
:1012200016EF09F014EF09F021EF09F01606D8A027
:101230001706CC0E1624D96E000E1720DA6E2D0E6E
:10124000DF6ECC0E1624126E000E1720136E1200E5
:10125000000E0F6E0BBE31EF09F02FEF09F037EFE4
:1012600009F00A6C0B1ED8B00B2A010E0F6E0DBED2
:101270003EEF09F03CEF09F042EF09F00C6C0D1E57
:10128000D8B00D2A0C500D10D8B449EF09F04BEF2F
:1012900009F06FEF09F0010E0E6E53EF09F0D890D0
:1012A0000C360D360E2A0DAE58EF09F05AEF09F044
:1012B0004FEF09F00C500A5C0D500B58D8A063EFAB
:1012C00009F065EF09F069EF09F00C500A5E0D5066
:1012D0000B5AD8900D320C320E2E5AEF09F00F50E7
:1012E000D8B475EF09F077EF09F07BEF09F00A6CDD
:1012F0000B1ED8B00B2A0AC00AF00BC00BF012006C
:10130000000E126E000E136E000E146E000E156E9F
:101310000E500F1010101110D8B491EF09F093EF88
:1013200009F0C9EF09F0010E166E9DEF09F0D89093
:101330000E360F3610361136162A11AEA2EF09F00E
:10134000A4EF09F097EF09F0D8901236133614364F
:1013500015360E500A5C0F500B5810500C58115097
:101360000D58D8A0B6EF09F0B8EF09F0C1EF09F0B9
:101370000E500A5E0F500B5A10500C5A11500D5A55
:101380001280D890113210320F320E32162EA4EF86
:1013900009F012C00AF013C00BF014C00CF015C015
:1013A0000DF01200FCEF09F0BF0E1424106E000EB9
:1013B0001520116EA1EC0AF016EF0AF0930E14241A
:1013C000106E000E1520116EA1EC0AF016EF0AF057
:1013D000D30E1424106E000E1520116EA1EC0AF02D
:1013E00016EF0AF07F0E1424106E000E1520116EF9
:1013F000A1EC0AF016EF0AF016C018F017C019F0A9
:101400001950000AD8B407EF0AF0F2EF09F01850AB
:10141000020AD8B4D4EF09F0010AD8B4DEEF09F01B
:10142000070AD8B4E8EF09F0F2EF09F01200948649
:101430009488800EC76E280EC66E000EC56E000E14
:101440000A6E120E0B6E7A0E0C6E000E0D6E17C029
:101450001BF018C01CF019C01DF01AC01EF0020EBF
:10146000D8901B361C361D361E36E82E30EF0AF09B
:101470001BC00EF01CC00FF01DC010F01EC011F0FC
:1014800080EC09F00A04C86E9D869E9612005DEFFE
:101490000AF018C0F6FF19C0F7FFF86A020EF764E9
:1014A00003D00800F55005D0F6CFE9FFF7CFEAFFEB
:1014B000EF50DEEC0AF0184A192A18C0F6FF19C0DE
:1014C000F7FFF86A020EF76403D00800F55005D064
:1014D000F6CFE9FFF7CFEAFFEF500009D8A473EF8A
:1014E0000AF075EF0AF049EF0AF01200A40EF66E4A
:1014F000170EF76E000EF86E0900F5CFE2F0090046
:10150000F5CFE3F0A20EF66E170EF76E000EF86E32
:101510000900F5CF53F00900F5CF54F000EE60F06C
:10152000780EEE6AE806FDE100EE39F01A0EEE6A7A
:10153000E806FDE155905592000EF86E0001A6EF09
:1015400003F0000E0001C56F000EC46FF00E101402
:101550000E6E0F6AC0EC0AF010C012F011C013F04A
:10156000123A133AF00E131612500F0B1312F00E1C
:101570001216F00E12140E6E0F6AC0EC0AF0120072
:101580000001C4510E12C5510F120EC00CF00FC055
:101590000DF0A9EC0BF0040E0E100C6E0F500D6E3A
:1015A000A9EC0BF000D0FB0E0E140C6E0D6AA9EC2A
:1015B0000BF0210EE82EFED700F01200116E000E87
:1015C0000001C56F010EC46F11C010F0F00E1016AF
:1015D00010500E6E0F6AC0EC0AF011C010F0103AF5
:1015E000F00E1016F00E101610500E6E0F6AC0ECB2
:1015F0000AF012000B6EC580C5B001EF0BF003EFCF
:101600000BF0FCEF0AF09E96C7B609EF0BF00BEF5C
:101610000BF00DEF0BF010EF0BF00B5064EC0BF038
:101620001200A1B616EF0BF018EF0BF011EF0BF054
:10163000C7B01DEF0BF01FEF0BF018EF0BF0C7B4A6
:1016400024EF0BF026EF0BF018EF0BF09E96120034
:1016500001C0A9FF03C0A8FFA69EA69CA684F29E77
:10166000550EA76EAA0EA76EA682A6B23AEF0BF091
:101670003CEF0BF035EF0BF0A69412000A500C0271
:10168000F3CF0EF0F4CF0FF00A500D02F3500F26F7
:101690000B500C02F3500F260EC00AF00FC00BF0D7
:1016A0001200026E02380F0B021A02C003F0034050
:1016B000E8423F0B031A03C004F0D8900430041A28
:1016C00004C001F0015012000A6E0AC0C9FF11ECFB
:1016D0000BF0C5AC6EEF0BF070EF0BF073EF0BF08F
:1016E000010E74EF0BF0020E12000F6E0F50FAECA9
:1016F0000AF00C5064EC0BF00E5064EC0BF00D5043
:1017000064EC0BF085EC0BF0120011EC0BF0C584CF
:10171000C5B48DEF0BF08FEF0BF088EF0BF09E96BA
:10172000C7501200000E0001E36F080EE26F000EBA
:101730000D6E000E0C6EA9EC0BF01200126E12C0B2
:101740000CF010C00DF011C00EF0220E75EC0BF075
:1017500012007E0EFAEC0AF00C5064EC0BF085ECF3
:101760000BF012000AC0A9FFA69EA69CA680A85056
:101770001200929C899C1200929C898C1200929C6F
:10178000899C1200929C898C1200949A8B9A120068
:10179000949A8B8A120094928B92120094928B826C
:0617A00012000200080027
:020000040020DA
:08000000FFFFFFFFFFFFFFFF00
:020000040030CA
:0E000000FF081F1EFF8081FF0FC00FE00F40A2
:00000001FF
